:1000000000800020E50A00002D0B00002F0B0000EF
:1000100000000000000000000000000000000000E0
:10002000000000000000000000000000310B000094
:100030000000000000000000330B0000350B000042
:10004000370B0000370B000079090000370B000068
:10005000370B000000000000370B0000370B0000DA
:10006000370B0000370B0000370B0000370B000088
:10007000370B0000370B0000370B0000370B000078
:10008000370B0000370B0000370B0000370B000068
:10009000370B0000370B0000370B0000370B000058
:1000A000370B0000370B00000000000000000000CC
:1000B0000000000000000000000000000000000040
:1000C00010B5064C2378002B07D1054B002B02D02E
:1000D000044800E000BF0123237010BD6C00002025
:1000E00000000000241C0000084B10B5002B03D0BA
:1000F0000749084800E000BF07480368002B00D10B
:1001000010BD064B002BFBD09847F9E7000000001C
:1001100070000020241C00006C0000200000000083
:10012000164B002B00D1144B9D46402292029A1A86
:10013000924600218B460F461348144A121A00F0CB
:1001400065F80F4B002B00D098470E4B002B00D0CA
:1001500098470020002104000D000D48002802D01F
:100160000C4800E000BF00F02DF82000290000F04E
:10017000AFF800F011F8C046000008000080002031
:1001800000000000000000006C000020E0010020E2
:100190000000000000000000084B10B50400002B18
:1001A00002D0002100E000BF054B1868836A002BD5
:1001B00000D09847200000F031F8C0460000000051
:1001C000281B000070B500260C4D0D4C641BA410BC
:1001D000A64209D1002601F09BFC0A4D0A4C641B83
:1001E000A410A64205D170BDB300EB589847013664
:1001F000EEE7B300EB5898470136F2E764000020C1
:1002000064000020640000206800002003008218C1
:10021000934200D1704719700133F9E7FEE7C046F9
:100220001D4B1B78012B00D070471C4B1B681B0714
:10023000FAD1F0221A4B1B68134018D1194B1B68D6
:1002400013421CD0154B1B681B07EDD1F022144B39
:100250001B681340402BE7D1124B1B681342E3D1BC
:10026000C12380220121DB00D205D150DCE7102B15
:1002700001D0302BEAD10B4B1B681342E6D10A4A5E
:100280000A4B1A6080220A4B12021A60024B1B783A
:10029000012BD7D0C8E7C046E00F00F0E40F00F014
:1002A000E80F00F0EC0F00F0DFFF07C0040500408E
:1002B000186C004010B50378022B02D0012B00D03F
:1002C00010BD40680022002100F064F8F8E7C04645
:1002D00030B5F020A02500230121032489B040047B
:1002E000ED050133202B0BD002001A411142F8D04A
:1002F0001A00C132FF32920001335451202BF3D146
:10030000A023F021A122DB054904D200995000214D
:10031000194A01A899500200184B32CB32C2184B2F
:1003200004AC049301236360164B174AA360802337
:100330005B00E3602100FD3B00F0EAF8002815D1E6
:10034000124800F0F9FB2025200000F033F90028C6
:10035000FAD1207800F048F90028FAD12378AB438D
:10036000512BF1D10A4800F0E7FBFEE70022002103
:1003700000F010F8E4E7C0460C0500002C1B00005C
:10038000880000208C000020B5020000381B00000F
:10039000441B0000BFF34F8F024A034BDA60BFF3E8
:1003A0004F8FFEE70400FA0500ED00E010B50029CC
:1003B0000DD00923002A01D1180010BD541E22407F
:1003C000FAD1826001608480C2600023F4E70E23CA
:1003D000F2E7C046030010B59C888068DA68121AFC
:1003E0000420944200D210BDDA68002014401A683C
:1003F0001155DA680132DA60F5E7C04610B5846855
:10040000C26803000520944209D09A689888024087
:100410001868825C00200A709A6801329A6010BDE8
:1004200070B516000C008D18002A05DD2078013407
:1004300000F0DAF8AC42F9D1300070BD10B50C0014
:10044000200000F0B7F80528FAD0012010BDC04602
:1004500030B5047885B0012C19D0022C34D0002C92
:1004600001D005B030BD254D254C29002000FFF7F7
:10047000C5FF002823D0A268E3689A42F1D1032384
:1004800002AA13701F4B10001B689847E9E74368E6
:100490001D4D19782800FFF79DFF00281ED1AA687E
:1004A000EB689B1A012B21D0AA68EB689B1AAA88DB
:1004B0009342D6D80121154800F0C6F9D1E70121B1
:1004C000280000F069F9D6E702AB1C70C36802A8E7
:1004D000019303930B4B1B689847C2E702AB1C7058
:1004E000084B03901B6802A89847DDE702AB187021
:1004F000044B02A81B689847D6E7C046B401002009
:10050000A00100208C01002090010020B0010020FB
:10051000F0B51E00214B050089B00C001A600720C1
:10052000002906D08A881E480968FFF73FFF002887
:1005300001D009B0F0BDA289A1681A48FFF736FFC3
:100540000028F6D16A46184B684692CB92C292CBED
:1005500092C212CB12C2AB6806932B7906775A1E51
:10056000934103756B790E22591E8B415B421A40F1
:100570004275EB780293AB7803932B7801936B78F9
:1005800000930A4900F082F80028D2D100F0DEF989
:100590000121074800F058F9CBE7C0468C01002044
:1005A00090010020A0010020501B00005104000019
:1005B000B001002070B50A4C0500A168A288E3686C
:1005C0005B1A9A4204D029002000FFF717FF70BD84
:1005D0000121044800F038F90028F4D00520F6E79E
:1005E00090010020B001002010B504000648012150
:1005F000047000F0D1F8112800D010BD210003488C
:10060000FFF7E8FEF9E7C046B5010020A001002091
:10061000F0B500281EDB1B4A03249446FF22170076
:100620008308C026C0B20440E4008901A7400A4004
:10063000A2409B006344B6009D59BD432A439A5192
:100640001F23C02118401E3B83400E4A49005350CF
:100650001360F0BDFF240C4A0325944622000F23AB
:10066000C0B20540ED008901AA400C40AC400340F7
:10067000083B9B089B006344DE6996433443DC617E
:10068000DEE7C04600E100E000ED00E0F0B5D64650
:100690004F464646C0B5384C0300A27D0820002ACC
:1006A00004D01CBC90469946A246F0BD002B60D0F9
:1006B0001A68A0200325C132FF32C00592001550F0
:1006C0000122AA461D68AA40A125ED004251A94673
:1006D00000255A68AC46C132FF32920015509E691F
:1006E000264A274D56511E7D5D7D3543254E955139
:1006F0005D681E68A846244D56514646234D565106
:100700001D7D012D1AD19E683700E0267600B04687
:100710004744BE0067463750C137FF37B846574693
:10072000DE684644B6003750DE68B5404E46855117
:10073000D8689D689051A220C00015501A69616068
:100740002260002908D0197FC12311480B4A9B0061
:10075000D0500220FFF75CFFA0230421074ADB00F2
:10076000D15000230122E374A374A27563750020A5
:1007700097E70922074B9CE7B801002000200040C2
:10078000240500006C0500000C05000014050000A5
:1007900080000200701B0000F0B5254A0400937C25
:1007A0001120002B00D0F0BD012591742148224971
:1007B000138294600B6005600B60138A1F4EE05C2F
:1007C000138A1F4D01339BB213827051536800206E
:1007D000002BE8D1802000274000947C138AA3429C
:1007E00003D312E0138A834202D00B68002BF9D0A6
:1007F000138A8342F2D00F60138A9468E45C138AF0
:1008000001339BB213827451E7E78023118A5B00A6
:1008100099420AD008490B68002BFCD00121002026
:10082000084B196000239374BDE70F20FAE7C04618
:10083000B8010020082000401C210040002000409A
:100840001C0500000C200040F0B5D6464F46464639
:10085000C0B5384B0400DA7C1120002A04D01CBC3F
:1008600090469946A246F0BD1A755A7DD974DC604F
:10087000002A0AD05A68002A0FD08121C1232E4AAB
:1008800089009B00D1500020E9E72C490A602C49DF
:100890000A600121284A1160ECE72A4A274E924655
:1008A000254A274C9046A322D20094463768390047
:1008B0004A1E91412268C9B2914652461068020010
:1008C000551EAA414D46D2B2002D03D1002801D1B8
:1008D000002FEBD0002A1DD100291BD165464046D0
:1008E00021601A7D4059DD68A8541A7DD87C0132F8
:1008F000D2B21A751A7D9042D8D8124A11600F4AA6
:100900001160D9745B7D002B0FD00123424600207B
:100910001360A4E700220B4903200A6007490A601C
:10092000DA74002F9BD10C3099E70122064B00208E
:100930001A6094E7B8010020002000402421004004
:10094000082100404421004004200040064A537D15
:10095000002B07D105490B6005490B6005490133A0
:100960000B6053757047C046B80100202421004039
:100970000821004000200040C12210B5514B9200D8
:100980009A5884B092054CD54F4A1168002948D036
:10099000002111608121C2228900920099504B4BA5
:1009A0005A7D002A02D10121494A1160022269467A
:1009B0000A7090214348C900425842506946039248
:1009C000DA7C68460A72DA68196801920022DA74E1
:1009D0005B6898473F4A1368002B10D03B4B188A3E
:1009E000997C814251D9002111601A8A9968895CE9
:1009F0001A8A013292B21A82374B324AD150374B9F
:100A00001A68002A0BD000221A60304B5A7D002A47
:100A100002D001212B4A1160DA7C002A44D104B0B3
:100A200010BDC123274A9B00D3585B07D2D52C4B5E
:100A300019680029CED00021A3241960234BE400BB
:100A4000187DD96812590A541A7DD87C0132D2B265
:100A50001A751A7D9042BDD15A7D002A02D101201B
:100A60001B4A10608124C2221648A40092008450C0
:100A70006C461A7D01202272002220700191DA74E6
:100A8000196868465B689847A4E700201060002951
:100A9000B5D06A46107011729A68987419680192FC
:100AA0005B6868469847AAE768461A7D012102728A
:100AB000DA680170019200221968DA745B6898475D
:100AC000ADE7C0460020004024210040B8010020CE
:100AD000042000401C2100401C050000442100406F
:100AE0000821004003210A4802680A4302600948BD
:100AF00002680A4302600849084A094B9B1A03DD51
:100B0000043BC858D050FBDC0648804706480047E5
:100B100024050040540500402C1C0000000000206B
:100B20006C0000202102000021010000FEE7FEE72A
:100B3000FEE7FEE7FEE7FEE70FB40B4B13B51C68BC
:100B4000002C05D0A369002B02D1200000F050F842
:100B500005AB049AA1682000019300F065F916BC6A
:100B600008BC04B01847C0460000002010B5024978
:100B700000F0B2F810BDC04625170000002310B5E4
:100B8000040003604360836081814366C281036126
:100B900043618361190008225C30FFF737FB054B86
:100BA00024626362044BA362044BE362044B23633D
:100BB00010BDC04695130000BD130000F5130000E2
:100BC0002114000070B568254A1E55430E00290007
:100BD000743100F0A3F8041E08D000212A0001603F
:100BE00046600C30A0606832FFF710FB200070BD3B
:100BF000836913B50400002B28D18364C3640365A3
:100C0000134B144A1B6882620193984201D101235D
:100C10008361200000F020F86060200000F01CF8E4
:100C2000A060200000F018F80022E0600421606855
:100C3000FFF7A4FF01220921A068FFF79FFF02220E
:100C40001221E068FFF79AFF0123A36113BDC0469C
:100C5000281B00006D0B0000F8B51E4B07001E6836
:100C6000B369002B02D13000FFF7C2FF4836B468E9
:100C70007368013B04D53368002B07D03668F6E76C
:100C80000C22A55E002D0DD06834F2E70421380057
:100C9000FFF798FF30600028F0D10C2304003B6080
:100CA0002000F8BD012320005B42E3810233A381D1
:100CB00065662560A560656025616561A56108229E
:100CC00029005C30FFF7A2FA6563A563A564E564BB
:100CD000E6E7C046281B0000F7B504000700002621
:100CE00001914834002C01D13000FEBD6368A56835
:100CF0000093009B013B009301D52468F2E7AB8988
:100D0000012B08D90E22AB5E013304D02900380034
:100D1000019B984706436835EBE70000032370B555
:100D2000CD1C9D43083506000C2D1ED20C25A94272
:100D30001DD8300000F0ADFD254A146821000029BF
:100D400019D1244C2368002B03D1300000F010FB94
:100D500020602900300000F00BFB431C2CD10C2339
:100D60003000336000F096FD03E0002DDFDA0C2345
:100D70003360002070BD0B685B1B1AD40B2B03D9AA
:100D80000B60CC18256003E08C420ED163681360C1
:100D9000300000F07FFD200007220B30231D904320
:100DA000C31AE7D05A42E250E4E74B6863600C0094
:100DB000EEE70C004968C2E70323C41C9C43A04231
:100DC000E0D0211A300000F0D3FA431CDAD1C6E794
:100DD000D0010020D4010020936810B5013B93603E
:100DE000002B05DA9469A34208DBCBB20A2B05D0AD
:100DF0001368581C10601970C8B210BD00F016FBC3
:100E0000FBE7F8B506000F001400D518AC4201D17D
:100E1000002007E021783A003000FFF7DDFF0134C1
:100E2000431CF3D1F8BD0000F0B59FB006000F00E1
:100E300014000593002804D08369002B01D1FFF72B
:100E4000D7FE7F4B9F425CD17768BB891B0762D579
:100E50003B69002B5FD0002306AD6B6120336B76BE
:100E60001033AB760294029C2378002B5DD1029B59
:100E7000E31A04930DD0049B029A39003000FFF767
:100E8000C0FF431C00D1CCE06A69049B94466344D4
:100E90006B612378002B00D1C3E001220023524272
:100EA0006A6002A95432521801342B60EB60AB60C7
:100EB0001370AB6521780522624800F0DFFC631CEB
:100EC0009C46002835D12968CB0604D5532302AAB5
:100ED00020309B1818700B0704D553232B2002AA2F
:100EE0009B18187023782A2B2CD000200A21099BEC
:100EF0002278303A092A00D86BE000282AD00993DA
:100F000028E0514B9F4201D1B7689EE74F4B9F426B
:100F10009BD1F76899E73900300000F0F1FA00281A
:100F200099D0012040421FB0F0BD252B9FD0013445
:100F30009AE7444B2968C01A012383400B432B6076
:100F40006446B7E7059B181D1B680590002B3ADB2C
:100F50000993644623782E2B0BD16378621C2A2BCD
:100F60003FD1059B02341A1D1B680592002B35DB0F
:100F7000079321780322364800F080FC002807D030
:100F8000334B2A68C01A4023834013432B6001343B
:100F90002178631C06222F480293297600F06EFC0C
:100FA000002844D02C4B002B2FD12968059B072209
:100FB000C90528D59B189343083305936B69039A99
:100FC0009B186B614FE75B42EB6002230B432B6086
:100FD000BFE74B4301349B18012089E701235B42A3
:100FE000C6E7002314000A201A006B60217830390C
:100FF000092903D9002BBCD00792BAE74243013438
:1010000052180123F2E70733D5E705AB00933A0006
:10101000124B2900300000E000BF0390039B013316
:10102000CCD1BB895B0600D57BE70B987BE705AB92
:1010300000933A00094B2900300000F07FF8ECE7FC
:10104000B01B0000F01B0000D01B0000901B000034
:10105000F61B0000FA1B000000000000030E000059
:10106000F7B5150001938A680B6900900C00934254
:1010700000DA130022002B6043321278002A01D0DC
:1010800001332B6023689B0602D52B6802332B604B
:10109000062723681F4027D0230043331B785A1E9E
:1010A00093412268920630D422000199433200987D
:1010B000089EB047431C25D0062320682A68E168B3
:1010C00003400025042B03D18D1AEB43DB171D4091
:1010D000A3682269934201DD9B1AED180027BD42E7
:1010E00020D1002010E00137E3682A689B1A9F4254
:1010F000D2DA22000123193201990098089EB047E4
:10110000431CF0D101204042FEBD3020E1184331A4
:10111000087021005A1C45310978A2184332023365
:101120001170C1E7220001231A3201990098089E2C
:10113000B047431CE6D00137D1E70000F0B58BB0D3
:1011400006920A0043320793059004920A7E0C002F
:10115000109B6E2A00D18FE017D8632A2CD008D8B4
:10116000002A00D199E0582A54D026004236327025
:1011700029E0642A01D0692AF7D121681A68080693
:1011800023D5111D1960156825E0732A00D188E068
:1011900008D86F2A29D0702AE7D1202209680A438B
:1011A000226003E0752A20D0782ADED1220078213F
:1011B000453211706C4A30E00E001A684236111D3B
:1011C000196013683370012379E04906D9D5111DE0
:1011D00019600023D55E002D03DA2D23049A6D4299
:1011E0001370624B0A2703932FE0206819680506E5
:1011F00003D5081D18600D6805E04006F9D50D6897
:10120000081D1860ADB2594B082703936F2A18D0F8
:101210000A2716E045310A70544A03921A68216879
:10122000101D18601568080622D5CB0702D52023AB
:10123000194321601027002D03D1202322689A43EF
:1012400022602300002243331A706368A360002BDE
:101250005CDB0422216891432160002D58D1049E5B
:10126000002B64D02600039B42361B7833705EE06F
:101270004806DAD5ADB2D8E709681A68080605D578
:10128000111D1960136862691A6006E04906F7D5F6
:10129000111D19601368A28A1A800023049E23611D
:1012A00054E01A68111D1960166800216268300048
:1012B00000F0E4FA002801D0801B606063682361BD
:1012C0000023049A137041E02369320006990598BF
:1012D000079DA847431C43D0236800259B070FD4D4
:1012E000099BE06898423DDA18003BE022000123A8
:1012F000193206990598079EB047431C30D0013536
:10130000E368099A9B1A9D42F0DBE9E7002DA9D01A
:10131000049E2800390000F0C7FB039B013E5B5C84
:1013200028003370390000F039FB051EF1D1082F79
:1013300009D12368DB0706D563682269934202DC82
:101340003023013E3370049B9B1B2361079B09AA3A
:1013500000932100069B0598FFF782FE431CB3D142
:10136000012040420BB0F0BD121C0000011C000027
:10137000002370B5064C05000800236000F0BAFB9E
:10138000431C03D12368002B00D02B6070BDC046E6
:10139000DC01002070B50C000E25495F00F0C6FA94
:1013A000002803DB636D1B18636570BDA389024AC7
:1013B0001340A381F9E7C046FFEFFFFFF8B51F0018
:1013C0008B8905000C001600DB0505D50E23C95ED0
:1013D0000022022300F0D2F9A389054A2800134015
:1013E000A38132000E23E15E3B0000F075F8F8BDEA
:1013F000FFEFFFFF70B50C000E25495F00F0BEF94E
:10140000A389421C03D1054A1340A38170BD8022E9
:1014100052011343A3816065F8E7C046FFEFFFFF69
:1014200010B50E23C95E00F0E1F810BDF8B5050057
:101430000E001400002804D08369002B01D1FFF7AF
:10144000D7FB224B9C422DD16C68A369A360A38972
:101450001B0731D52369002B2ED023682269F7B2F0
:10146000981A6369F6B2984205DB2100280000F063
:1014700059F9002826D1A3680130013BA3602368F5
:101480005A1C22601F706369984204D0A389DB074D
:101490001AD50A2E18D12100280000F043F900289F
:1014A00012D00FE00A4B9C4201D1AC68CDE7094B4A
:1014B0009C42CAD1EC68C8E72100280000F020F85F
:1014C0000028CAD0012676423000F8BDB01B0000CB
:1014D000D01B0000901B000070B505000800110033
:1014E0000022064C22601A00FEF79AFF431C03D12B
:1014F0002368002B00D02B6070BDC046DC010020AB
:10150000364B70B51D6806000C00002D05D0AB6988
:10151000002B02D12800FFF76BFB314B9C420FD10F
:101520006C680C23E25E93B219072DD4D90611D44E
:1015300009230120336037331343A381404270BD38
:10154000284B9C4201D1AC68EBE7274B9C42E8D189
:10155000EC68E6E75B0713D5616B002908D0230030
:101560004433994202D0300000F096F900236363BF
:101570002422A3899343A38100236360236923600A
:101580000823A2891343A3812369002B0BD1A02137
:101590008022A389890092000B40934203D021004E
:1015A000300000F027F90123A289134011D0002355
:1015B000A36063695B42A361002023698342BED1BB
:1015C0000C23E25E1306BAD540231343A3810138EE
:1015D000B5E7920700D46369A360EDE7000000203F
:1015E000B01B0000D01B0000901B0000002370B552
:1015F000064C05000800236000F05CFA431C03D190
:101600002368002B00D02B6070BDC046DC01002099
:10161000F7B58A8905000C00130760D44B68002BCE
:1016200004DC0B6C002B01DC0020FEBDE76A002F00
:10163000FAD000232E682B6080235B011A4034D03F
:10164000606DA3895B0706D56368C01A636B002BC6
:1016500001D0236CC01A0200216A00232800E76A27
:10166000B847A189431C06D12B681D2B31D82C4AC1
:10167000DA40D3072DD50023636023692360CB04B0
:1016800005D5431C02D12B68002B00D16065616B2E
:101690002E600029C8D023004433994202D028008C
:1016A00000F0FAF800206063BFE70123216A2800F8
:1016B000B847431CC5D12B68002BC2D01D2B01D0CD
:1016C000162B01D12E60AFE74023A2891343A381DB
:1016D000ABE740230B430120A3814042A5E70F69FC
:1016E000002FA1D00B680F60DB1B01930023920732
:1016F00000D14B69A360019B002B00DC94E7019BA8
:101700003A00216A2800A66AB047002803DC40237B
:10171000A2891343DFE7019B3F181B1A0193EAE7F5
:10172000010040200B6970B505000C00002B01D1B1
:10173000002070BD002804D08369002B01D1FFF781
:1017400057FA0B4B9C4209D16C680C22A35E002B0C
:10175000EED021002800FFF75BFFEAE7054B9C4233
:1017600001D1AC68F1E7044B9C42EED1EC68ECE7A8
:10177000B01B0000D01B0000901B000070B50500DE
:10178000080011000022064C22601A0000F0AAF99D
:10179000431C03D12368002B00D02B6070BDC046D2
:1017A000DC01002070B50E001D000E23C95E90B054
:1017B0001400002907DA00232B60B3891B0611D41B
:1017C0008023DB000FE001AA00F0C4F80028F2DB60
:1017D000F022029B12021340054A9B185A425341C1
:1017E0002B60EDE740230020236010B070BDC046A1
:1017F00000E0FFFFF7B502268B8905000C0033429D
:1018000006D0230047332360236101236361F7BDC2
:1018100001AB6A46FFF7C6FF009907002800FFF7F3
:101820007DFA002808D10C22A35E9A05EFD403228A
:1018300093431E43A681E4E70F4BAB628023A2894A
:1018400020601343A381009B20616361019B002BF7
:101850000DD00E23E15E280000F08EF8002806D09F
:101860000322A38993431A0001231343A381A08970
:101870003843A081CBE7C0466D0B0000C9B2821887
:10188000904201D10020704703788B42FBD0013099
:10189000F6E770477047000070B50500002910D0CA
:1018A0000C1F2368002B00DAE4182800FFF7F1FF73
:1018B0001D4A1368002B05D1636014602800FFF7F0
:1018C000E9FF70BDA34209D9216860188342F3D1B2
:1018D00018685B6841182160EEE713005A68002A17
:1018E00001D0A242F9D919685818A0420BD120683A
:1018F0000918581819608242E0D1106852684118DE
:1019000019605A60DAE7A04202D90C232B60D5E7B0
:1019100021686018824203D1106852684118216022
:1019200062605C60CAE7C046D001002070B5050067
:10193000080011000022064C22601A00FEF77EFD0E
:10194000431C03D12368002B00D02B6070BDC04620
:10195000DC010020002370B5064C050008001100D2
:10196000236000F0AFF8431C03D12368002B00D0A4
:101970002B6070BDDC010020002370B5064C050013
:101980000800236000F0A6F8431C03D12368002B55
:1019900000D02B6070BDC046DC010020002243084F
:1019A0008B4274D303098B425FD3030A8B4244D327
:1019B000030B8B4228D3030C8B420DD3FF22090269
:1019C00012BA030C8B4202D31212090265D0030B28
:1019D0008B4219D300E0090AC30B8B4201D3CB031E
:1019E000C01A5241830B8B4201D38B03C01A524160
:1019F000430B8B4201D34B03C01A5241030B8B4262
:101A000001D30B03C01A5241C30A8B4201D3CB024C
:101A1000C01A5241830A8B4201D38B02C01A524131
:101A2000430A8B4201D34B02C01A5241030A8B4234
:101A300001D30B02C01A5241CDD2C3098B4201D34C
:101A4000CB01C01A524183098B4201D38B01C01ACA
:101A5000524143098B4201D34B01C01A5241030941
:101A60008B4201D30B01C01A5241C3088B4201D3F0
:101A7000CB00C01A524183088B4201D38B00C01A9D
:101A8000524143088B4201D34B00C01A5241411AC4
:101A900000D20146524110467047FFE701B50020D1
:101AA00000F006F802BDC0460029F7D076E770477F
:101AB0007047C04658220120014B40421A607047CF
:101AC000DC01002058220120014B40421A6070477F
:101AD000DC0100205822024B00201A607047C046EB
:101AE000DC01002058220120014B40421A6070475F
:101AF000DC010020044A1368002B03D01818106082
:101B000018007047014BF9E7D8010020E0010020E0
:101B1000F8B5C046F8BC08BC9E467047F8B5C0464C
:101B2000F8BC08BC9E467047040000200B09080A58
:101B30000100000000509D000A0D53746172743A58
:101B4000200A0D00200A0D45786974210A0D000055
:101B5000090000000B0000000A000000080000005F
:101B6000000000000000000000509D000300000085
:101B7000090000000B0000000A000000080000003F
:101B8000000000000000000000509D000300000065
:101B90000000000000000000000000000000000045
:101BA0000000000000000000000000000000000035
:101BB0000000000000000000000000000000000025
:101BC0000000000000000000000000000000000015
:101BD0000000000000000000000000000000000005
:101BE00000000000000000000000000000000000F5
:101BF000232D302B2000686C4C00656667454647F6
:101C00000030313233343536373839414243444578
:101C100046003031323334353637383961626364E7
:041C200065660000F5
:081C2400FCE4FF7F0100000059
:101C2C000400002000000000B01B0000D01B0000CE
:101C3C00901B0000000000000000000000000000ED
:101C4C000000000000000000000000000000000088
:101C5C000000000000000000000000000000000078
:101C6C000000000000000000000000000000000068
:101C7C000000000000000000000000000000000058
:0C1C8C0000000000E9000000C1000000A2
:0400000300000AE50A
:00000001FF
