:10000000008000205D030000A5030000A70300009E
:1000100000000000000000000000000000000000E0
:10002000000000000000000000000000A903000024
:100030000000000000000000AB030000AD03000062
:10004000AF030000AF030000AF030000AF030000E8
:10005000AF03000000000000AF030000AF0300008A
:10006000AF030000AF030000AF030000AF030000C8
:10007000AF030000AF030000AF030000AF030000B8
:10008000AF030000AF030000AF030000AF030000A8
:10009000AF030000AF030000AF030000AF03000098
:1000A000AF030000AF0300000000000000000000EC
:1000B0000000000000000000000000000000000040
:1000C00010B5064C2378002B07D1054B002B02D02E
:1000D000044800E000BF0123237010BD6800002029
:1000E00000000000D0030000084B10B5002B03D027
:1000F0000749084800E000BF07480368002B00D10B
:1001000010BD064B002BFBD09847F9E7000000001C
:100110006C000020D00300006800002000000000F8
:10012000164B002B00D1144B9D46402292029A1A86
:10013000924600218B460F461348144A121A00F0CB
:1001400065F80F4B002B00D098470E4B002B00D0CA
:1001500098470020002104000D000D48002802D01F
:100160000C4800E000BF00F02DF82000290000F04E
:10017000A1F800F011F8C04600000800008000203F
:100180000000000000000000680000208400002043
:100190000000000000000000084B10B50400002B18
:1001A00002D0002100E000BF054B1868836A002BD5
:1001B00000D09847200000F031F8C0460000000051
:1001C000C803000070B500260C4D0D4C641BA41034
:1001D000A64209D1002600F0EBF80A4D0A4C641B38
:1001E000A410A64205D170BDB300EB589847013664
:1001F000EEE7B300EB5898470136F2E760000020C5
:1002000060000020600000206400002003008218CD
:10021000934200D1704719700133F9E7FEE7C046F9
:100220001D4B1B78012B00D070471C4B1B681B0714
:10023000FAD1F0221A4B1B68134018D1194B1B68D6
:1002400013421CD0154B1B681B07EDD1F022144B39
:100250001B681340402BE7D1124B1B681342E3D1BC
:10026000C12380220121DB00D205D150DCE7102B15
:1002700001D0302BEAD10B4B1B681342E6D10A4A5E
:100280000A4B1A6080220A4B12021A60024B1B783A
:10029000012BD7D0C8E7C046E00F00F0E40F00F014
:1002A000E80F00F0EC0F00F0DFFF07C0040500408E
:1002B000186C0040F8B5A020F0250023012403218C
:1002C0006D04C0050133202B0BD02A001A411442C3
:1002D000F8D01A00C132FF32920001331150202BA6
:1002E000F3D1A0250B4F0C4EED0500240123395D01
:1002F000AA598B40A1211800C90090436850FA20E8
:100300001340064A4000AB50013400F009F8042CB9
:10031000ECD1EAE7CC030000040500000C05000066
:1003200082B00190019B002B14D0019B0A48013B35
:1003300001930138C046C046C046C046C046C046CC
:10034000C046C046C046C046C046C046F1D1019B2B
:10035000002BEAD102B07047E703000003210A48EE
:1003600002680A430260094802680A4302600849B9
:10037000084A094B9B1A03DD043BC858D050FBDCEC
:1003800006488047064800472405004054050040C1
:10039000D8030000000000206800002021020000B7
:1003A00021010000FEE7FEE7FEE7FEE7FEE7FEE7CD
:1003B000F8B5C046F8BC08BC9E467047F8B5C046C4
:1003C000F8BC08BC9E4670470000002015161718A0
:0803D00050FDFF7F0100000059
:1003D8000000000000000000000000000000000015
:1003E8000000000000000000000000000000000005
:1003F80000000000000000000000000000000000F5
:1004080000000000000000000000000000000000E4
:1004180000000000000000000000000000000000D4
:1004280000000000000000000000000000000000C4
:08043800E9000000C100000012
:040000030000035D99
:00000001FF
